{
  "address": "0xCf7Ed3AccA5a467e9e704C703E8D87F634fB0Fc9",
  "abi": [
    {
      "inputs": [
        {
          "internalType": "address",
          "name": "vrfCoordinatorV2",
          "type": "address"
        },
        {
          "internalType": "uint256",
          "name": "entranceFee",
          "type": "uint256"
        },
        {
          "internalType": "bytes32",
          "name": "gasLane",
          "type": "bytes32"
        },
        {
          "internalType": "uint64",
          "name": "subscriptionId",
          "type": "uint64"
        },
        {
          "internalType": "uint32",
          "name": "callbackGasLimit",
          "type": "uint32"
        },
        {
          "internalType": "uint256",
          "name": "interval",
          "type": "uint256"
        }
      ],
      "stateMutability": "nonpayable",
      "type": "constructor"
    },
    {
      "inputs": [
        {
          "internalType": "address",
          "name": "have",
          "type": "address"
        },
        {
          "internalType": "address",
          "name": "want",
          "type": "address"
        }
      ],
      "name": "OnlyCoordinatorCanFulfill",
      "type": "error"
    },
    {
      "inputs": [],
      "name": "Raffle__NotEnoughEntranceFee",
      "type": "error"
    },
    {
      "inputs": [],
      "name": "Raffle__NotOpen",
      "type": "error"
    },
    {
      "inputs": [],
      "name": "Raffle__TransferFailed",
      "type": "error"
    },
    {
      "inputs": [
        {
          "internalType": "uint256",
          "name": "currentBalance",
          "type": "uint256"
        },
        {
          "internalType": "uint256",
          "name": "numPlayers",
          "type": "uint256"
        },
        {
          "internalType": "uint256",
          "name": "raffleState",
          "type": "uint256"
        }
      ],
      "name": "Raffle__UpkeepNotNeeded",
      "type": "error"
    },
    {
      "anonymous": false,
      "inputs": [
        {
          "indexed": true,
          "internalType": "address",
          "name": "player",
          "type": "address"
        }
      ],
      "name": "RaffleEnter",
      "type": "event"
    },
    {
      "anonymous": false,
      "inputs": [
        {
          "indexed": true,
          "internalType": "uint256",
          "name": "requestId",
          "type": "uint256"
        }
      ],
      "name": "RequestedRaffleWinner",
      "type": "event"
    },
    {
      "anonymous": false,
      "inputs": [
        {
          "indexed": true,
          "internalType": "address",
          "name": "winner",
          "type": "address"
        }
      ],
      "name": "WinnerPicked",
      "type": "event"
    },
    {
      "inputs": [
        {
          "internalType": "bytes",
          "name": "",
          "type": "bytes"
        }
      ],
      "name": "checkUpkeep",
      "outputs": [
        {
          "internalType": "bool",
          "name": "upkeepNeeded",
          "type": "bool"
        },
        {
          "internalType": "bytes",
          "name": "",
          "type": "bytes"
        }
      ],
      "stateMutability": "nonpayable",
      "type": "function"
    },
    {
      "inputs": [],
      "name": "enterRaffle",
      "outputs": [],
      "stateMutability": "payable",
      "type": "function"
    },
    {
      "inputs": [],
      "name": "getEntranceFee",
      "outputs": [
        {
          "internalType": "uint256",
          "name": "",
          "type": "uint256"
        }
      ],
      "stateMutability": "view",
      "type": "function"
    },
    {
      "inputs": [],
      "name": "getInterval",
      "outputs": [
        {
          "internalType": "uint256",
          "name": "",
          "type": "uint256"
        }
      ],
      "stateMutability": "view",
      "type": "function"
    },
    {
      "inputs": [],
      "name": "getLatestTimeStamp",
      "outputs": [
        {
          "internalType": "uint256",
          "name": "",
          "type": "uint256"
        }
      ],
      "stateMutability": "view",
      "type": "function"
    },
    {
      "inputs": [],
      "name": "getNumWords",
      "outputs": [
        {
          "internalType": "uint256",
          "name": "",
          "type": "uint256"
        }
      ],
      "stateMutability": "pure",
      "type": "function"
    },
    {
      "inputs": [],
      "name": "getNumberOfPlayers",
      "outputs": [
        {
          "internalType": "uint256",
          "name": "",
          "type": "uint256"
        }
      ],
      "stateMutability": "view",
      "type": "function"
    },
    {
      "inputs": [
        {
          "internalType": "uint256",
          "name": "playerIndex",
          "type": "uint256"
        }
      ],
      "name": "getPlayer",
      "outputs": [
        {
          "internalType": "address",
          "name": "",
          "type": "address"
        }
      ],
      "stateMutability": "view",
      "type": "function"
    },
    {
      "inputs": [],
      "name": "getRaffleState",
      "outputs": [
        {
          "internalType": "enum Raffle.RaffleState",
          "name": "",
          "type": "uint8"
        }
      ],
      "stateMutability": "view",
      "type": "function"
    },
    {
      "inputs": [],
      "name": "getRecentWinner",
      "outputs": [
        {
          "internalType": "address",
          "name": "",
          "type": "address"
        }
      ],
      "stateMutability": "view",
      "type": "function"
    },
    {
      "inputs": [],
      "name": "getSubscriptionId",
      "outputs": [
        {
          "internalType": "uint64",
          "name": "",
          "type": "uint64"
        }
      ],
      "stateMutability": "view",
      "type": "function"
    },
    {
      "inputs": [
        {
          "internalType": "bytes",
          "name": "",
          "type": "bytes"
        }
      ],
      "name": "performUpkeep",
      "outputs": [],
      "stateMutability": "nonpayable",
      "type": "function"
    },
    {
      "inputs": [
        {
          "internalType": "uint256",
          "name": "requestId",
          "type": "uint256"
        },
        {
          "internalType": "uint256[]",
          "name": "randomWords",
          "type": "uint256[]"
        }
      ],
      "name": "rawFulfillRandomWords",
      "outputs": [],
      "stateMutability": "nonpayable",
      "type": "function"
    }
  ],
  "transactionHash": "0x323d560c8d4513740fe8a40b0922237a39a5c7c8f4899405f2ae365de0bdcd05",
  "args": [
    "0x5FbDB2315678afecb367f032d93F642f64180aa3",
    "100000000000000000",
    "0x474e34a077df58807dbe9c96d3c009b23b3c6d0cce433e59bbf5b34f823bc56c",
    "1",
    "500000",
    "30"
  ],
  "numDeployments": 1,
  "solcInputHash": "ea5683da2db1af826b735013b4a01113",
  "bytecode": "0x6101606040523480156200001257600080fd5b50604051620018a2380380620018a2833981810160405281019062000038919062000294565b858073ffffffffffffffffffffffffffffffffffffffff1660808173ffffffffffffffffffffffffffffffffffffffff1681525050508460a081815250508573ffffffffffffffffffffffffffffffffffffffff1660c08173ffffffffffffffffffffffffffffffffffffffff16815250508360e081815250508267ffffffffffffffff166101008167ffffffffffffffff16815250508163ffffffff166101208163ffffffff16815250506000600160146101000a81548160ff021916908360018111156200010d576200010c62000330565b5b0217905550426002819055508061014081815250505050505050506200035f565b600080fd5b600073ffffffffffffffffffffffffffffffffffffffff82169050919050565b6000620001608262000133565b9050919050565b620001728162000153565b81146200017e57600080fd5b50565b600081519050620001928162000167565b92915050565b6000819050919050565b620001ad8162000198565b8114620001b957600080fd5b50565b600081519050620001cd81620001a2565b92915050565b6000819050919050565b620001e881620001d3565b8114620001f457600080fd5b50565b6000815190506200020881620001dd565b92915050565b600067ffffffffffffffff82169050919050565b6200022d816200020e565b81146200023957600080fd5b50565b6000815190506200024d8162000222565b92915050565b600063ffffffff82169050919050565b6200026e8162000253565b81146200027a57600080fd5b50565b6000815190506200028e8162000263565b92915050565b60008060008060008060c08789031215620002b457620002b36200012e565b5b6000620002c489828a0162000181565b9650506020620002d789828a01620001bc565b9550506040620002ea89828a01620001f7565b9450506060620002fd89828a016200023c565b93505060806200031089828a016200027d565b92505060a06200032389828a01620001bc565b9150509295509295509295565b7f4e487b7100000000000000000000000000000000000000000000000000000000600052602160045260246000fd5b60805160a05160c05160e0516101005161012051610140516114cc620003d6600039600081816107d80152610846015260006106a5015260008181610682015261086e01526000610661015260006106250152600081816102fa01526103f7015260008181610337015261038b01526114cc6000f3fe6080604052600436106100c25760003560e01c8063473f1ddc1161007f57806391ad27b41161005957806391ad27b414610238578063de3d9fb714610263578063e55ae4e81461028e578063fd6673f5146102cb576100c2565b8063473f1ddc146101a457806353a2c19a146101cf5780636e04ff0d146101fa576100c2565b806309bc33a7146100c7578063115cbaf5146100f25780631fe543e31461011d5780632cfcc53914610146578063320229eb146101505780634585e33b1461017b575b600080fd5b3480156100d357600080fd5b506100dc6102f6565b6040516100e99190610c00565b60405180910390f35b3480156100fe57600080fd5b5061010761031e565b6040516101149190610c92565b60405180910390f35b34801561012957600080fd5b50610144600480360381019061013f9190610e46565b610335565b005b61014e6103f5565b005b34801561015c57600080fd5b50610165610564565b6040516101729190610c00565b60405180910390f35b34801561018757600080fd5b506101a2600480360381019061019d9190610efd565b61056e565b005b3480156101b057600080fd5b506101b961075e565b6040516101c69190610f8b565b60405180910390f35b3480156101db57600080fd5b506101e4610788565b6040516101f19190610c00565b60405180910390f35b34801561020657600080fd5b50610221600480360381019061021c919061105b565b610795565b60405161022f92919061113e565b60405180910390f35b34801561024457600080fd5b5061024d610842565b60405161025a9190610c00565b60405180910390f35b34801561026f57600080fd5b5061027861086a565b6040516102859190611191565b60405180910390f35b34801561029a57600080fd5b506102b560048036038101906102b091906111ac565b610892565b6040516102c29190610f8b565b60405180910390f35b3480156102d757600080fd5b506102e06108d9565b6040516102ed9190610c00565b60405180910390f35b60007f0000000000000000000000000000000000000000000000000000000000000000905090565b6000600160149054906101000a900460ff16905090565b7f000000000000000000000000000000000000000000000000000000000000000073ffffffffffffffffffffffffffffffffffffffff163373ffffffffffffffffffffffffffffffffffffffff16146103e757337f00000000000000000000000000000000000000000000000000000000000000006040517f1cf993f40000000000000000000000000000000000000000000000000000000081526004016103de9291906111d9565b60405180910390fd5b6103f182826108e5565b5050565b7f000000000000000000000000000000000000000000000000000000000000000034101561044f576040517f4879370a00000000000000000000000000000000000000000000000000000000815260040160405180910390fd5b6000600181111561046357610462610c1b565b5b600160149054906101000a900460ff16600181111561048557610484610c1b565b5b146104bc576040517f1425571c00000000000000000000000000000000000000000000000000000000815260040160405180910390fd5b6000339080600181540180825580915050600190039060005260206000200160009091909190916101000a81548173ffffffffffffffffffffffffffffffffffffffff021916908373ffffffffffffffffffffffffffffffffffffffff1602179055503373ffffffffffffffffffffffffffffffffffffffff167f0805e1d667bddb8a95f0f09880cf94f403fb596ce79928d9f29b74203ba284d460405160405180910390a2565b6000600254905090565b600061058860405180602001604052806000815250610795565b509050806105f75747600080549050600160149054906101000a900460ff1660018111156105b9576105b8610c1b565b5b6040517f584327aa0000000000000000000000000000000000000000000000000000000081526004016105ee93929190611202565b60405180910390fd5b60018060146101000a81548160ff0219169083600181111561061c5761061b610c1b565b5b021790555060007f000000000000000000000000000000000000000000000000000000000000000073ffffffffffffffffffffffffffffffffffffffff16635d3b1d307f00000000000000000000000000000000000000000000000000000000000000007f000000000000000000000000000000000000000000000000000000000000000060037f000000000000000000000000000000000000000000000000000000000000000060016040518663ffffffff1660e01b81526004016106e69594939291906112c9565b6020604051808303816000875af1158015610705573d6000803e3d6000fd5b505050506040513d601f19601f820116820180604052508101906107299190611331565b9050807fcd6e45c8998311cab7e9d4385596cac867e20a0587194b954fa3a731c93ce78b60405160405180910390a250505050565b6000600160009054906101000a900473ffffffffffffffffffffffffffffffffffffffff16905090565b6000600161ffff16905090565b600060606000600160149054906101000a900460ff1660018111156107bd576107bc610c1b565b5b600060018111156107d1576107d0610c1b565b5b14905060007f000000000000000000000000000000000000000000000000000000000000000060025442610805919061138d565b119050600080600080549050119050600080471190508380156108255750825b801561082e5750815b80156108375750805b955050505050915091565b60007f0000000000000000000000000000000000000000000000000000000000000000905090565b60007f0000000000000000000000000000000000000000000000000000000000000000905090565b60008082815481106108a7576108a66113c1565b5b9060005260206000200160009054906101000a900473ffffffffffffffffffffffffffffffffffffffff169050919050565b60008080549050905090565b60018060146101000a81548160ff0219169083600181111561090a57610909610c1b565b5b0217905550600080805490508260008151811061092a576109296113c1565b5b602002602001015161093c919061141f565b90506000808281548110610953576109526113c1565b5b9060005260206000200160009054906101000a900473ffffffffffffffffffffffffffffffffffffffff16905080600160006101000a81548173ffffffffffffffffffffffffffffffffffffffff021916908373ffffffffffffffffffffffffffffffffffffffff1602179055506000600160146101000a81548160ff021916908360018111156109e7576109e6610c1b565b5b0217905550600067ffffffffffffffff811115610a0757610a06610d03565b5b604051908082528060200260200182016040528015610a355781602001602082028036833780820191505090505b5060009080519060200190610a4b929190610b40565b504260028190555060008173ffffffffffffffffffffffffffffffffffffffff1647604051610a7990611481565b60006040518083038185875af1925050503d8060008114610ab6576040519150601f19603f3d011682016040523d82523d6000602084013e610abb565b606091505b5050905080610af6576040517fa1d04b3900000000000000000000000000000000000000000000000000000000815260040160405180910390fd5b8173ffffffffffffffffffffffffffffffffffffffff167f5b690ec4a06fe979403046eaeea5b3ce38524683c3001f662c8b5a829632f7df60405160405180910390a25050505050565b828054828255906000526020600020908101928215610bb9579160200282015b82811115610bb85782518260006101000a81548173ffffffffffffffffffffffffffffffffffffffff021916908373ffffffffffffffffffffffffffffffffffffffff16021790555091602001919060010190610b60565b5b509050610bc69190610bca565b5090565b5b80821115610be3576000816000905550600101610bcb565b5090565b6000819050919050565b610bfa81610be7565b82525050565b6000602082019050610c156000830184610bf1565b92915050565b7f4e487b7100000000000000000000000000000000000000000000000000000000600052602160045260246000fd5b60028110610c5b57610c5a610c1b565b5b50565b6000819050610c6c82610c4a565b919050565b6000610c7c82610c5e565b9050919050565b610c8c81610c71565b82525050565b6000602082019050610ca76000830184610c83565b92915050565b6000604051905090565b600080fd5b600080fd5b610cca81610be7565b8114610cd557600080fd5b50565b600081359050610ce781610cc1565b92915050565b600080fd5b6000601f19601f8301169050919050565b7f4e487b7100000000000000000000000000000000000000000000000000000000600052604160045260246000fd5b610d3b82610cf2565b810181811067ffffffffffffffff82111715610d5a57610d59610d03565b5b80604052505050565b6000610d6d610cad565b9050610d798282610d32565b919050565b600067ffffffffffffffff821115610d9957610d98610d03565b5b602082029050602081019050919050565b600080fd5b6000610dc2610dbd84610d7e565b610d63565b90508083825260208201905060208402830185811115610de557610de4610daa565b5b835b81811015610e0e5780610dfa8882610cd8565b845260208401935050602081019050610de7565b5050509392505050565b600082601f830112610e2d57610e2c610ced565b5b8135610e3d848260208601610daf565b91505092915050565b60008060408385031215610e5d57610e5c610cb7565b5b6000610e6b85828601610cd8565b925050602083013567ffffffffffffffff811115610e8c57610e8b610cbc565b5b610e9885828601610e18565b9150509250929050565b600080fd5b60008083601f840112610ebd57610ebc610ced565b5b8235905067ffffffffffffffff811115610eda57610ed9610ea2565b5b602083019150836001820283011115610ef657610ef5610daa565b5b9250929050565b60008060208385031215610f1457610f13610cb7565b5b600083013567ffffffffffffffff811115610f3257610f31610cbc565b5b610f3e85828601610ea7565b92509250509250929050565b600073ffffffffffffffffffffffffffffffffffffffff82169050919050565b6000610f7582610f4a565b9050919050565b610f8581610f6a565b82525050565b6000602082019050610fa06000830184610f7c565b92915050565b600080fd5b600067ffffffffffffffff821115610fc657610fc5610d03565b5b610fcf82610cf2565b9050602081019050919050565b82818337600083830152505050565b6000610ffe610ff984610fab565b610d63565b90508281526020810184848401111561101a57611019610fa6565b5b611025848285610fdc565b509392505050565b600082601f83011261104257611041610ced565b5b8135611052848260208601610feb565b91505092915050565b60006020828403121561107157611070610cb7565b5b600082013567ffffffffffffffff81111561108f5761108e610cbc565b5b61109b8482850161102d565b91505092915050565b60008115159050919050565b6110b9816110a4565b82525050565b600081519050919050565b600082825260208201905092915050565b60005b838110156110f95780820151818401526020810190506110de565b60008484015250505050565b6000611110826110bf565b61111a81856110ca565b935061112a8185602086016110db565b61113381610cf2565b840191505092915050565b600060408201905061115360008301856110b0565b81810360208301526111658184611105565b90509392505050565b600067ffffffffffffffff82169050919050565b61118b8161116e565b82525050565b60006020820190506111a66000830184611182565b92915050565b6000602082840312156111c2576111c1610cb7565b5b60006111d084828501610cd8565b91505092915050565b60006040820190506111ee6000830185610f7c565b6111fb6020830184610f7c565b9392505050565b60006060820190506112176000830186610bf1565b6112246020830185610bf1565b6112316040830184610bf1565b949350505050565b6000819050919050565b61124c81611239565b82525050565b600061ffff82169050919050565b61126981611252565b82525050565b600063ffffffff82169050919050565b6112888161126f565b82525050565b6000819050919050565b60006112b36112ae6112a984611252565b61128e565b61126f565b9050919050565b6112c381611298565b82525050565b600060a0820190506112de6000830188611243565b6112eb6020830187611182565b6112f86040830186611260565b611305606083018561127f565b61131260808301846112ba565b9695505050505050565b60008151905061132b81610cc1565b92915050565b60006020828403121561134757611346610cb7565b5b60006113558482850161131c565b91505092915050565b7f4e487b7100000000000000000000000000000000000000000000000000000000600052601160045260246000fd5b600061139882610be7565b91506113a383610be7565b92508282039050818111156113bb576113ba61135e565b5b92915050565b7f4e487b7100000000000000000000000000000000000000000000000000000000600052603260045260246000fd5b7f4e487b7100000000000000000000000000000000000000000000000000000000600052601260045260246000fd5b600061142a82610be7565b915061143583610be7565b925082611445576114446113f0565b5b828206905092915050565b600081905092915050565b50565b600061146b600083611450565b91506114768261145b565b600082019050919050565b600061148c8261145e565b915081905091905056fea264697066735822122079f917b42a1fcdd7a5fd065754026ae0c3b08baf56e9e341e7dfac2c92b5319664736f6c63430008130033",
  "devdoc": {
    "author": "Adedeji Tewogbade",
    "details": "this implements chainlink vrf v2 and chainlink keepers",
    "kind": "dev",
    "methods": {
      "checkUpkeep(bytes)": {
        "details": "This is the function that the chainlink keeper nodes call they look for the 'upkeepNeed' to return true the following should be true in order to return true 1. Our time interval should have passed 2. The lottery should have at least 1 player and have some ETH 3. Our subscription is funded with LINK 4. The lottery should be in an open state"
      }
    },
    "title": "A sample raffle contract",
    "version": 1
  },
  "userdoc": {
    "kind": "user",
    "methods": {},
    "notice": "this contract is for creating an untamperable decentralized smart contract",
    "version": 1
  },
  "storageLayout": {
    "storage": [
      {
        "astId": 243,
        "contract": "contracts/Raffle.sol:Raffle",
        "label": "s_players",
        "offset": 0,
        "slot": "0",
        "type": "t_array(t_address_payable)dyn_storage"
      },
      {
        "astId": 260,
        "contract": "contracts/Raffle.sol:Raffle",
        "label": "s_recentWinner",
        "offset": 0,
        "slot": "1",
        "type": "t_address"
      },
      {
        "astId": 263,
        "contract": "contracts/Raffle.sol:Raffle",
        "label": "s_raffleState",
        "offset": 20,
        "slot": "1",
        "type": "t_enum(RaffleState)238"
      },
      {
        "astId": 265,
        "contract": "contracts/Raffle.sol:Raffle",
        "label": "s_lastTimeStamp",
        "offset": 0,
        "slot": "2",
        "type": "t_uint256"
      }
    ],
    "types": {
      "t_address": {
        "encoding": "inplace",
        "label": "address",
        "numberOfBytes": "20"
      },
      "t_address_payable": {
        "encoding": "inplace",
        "label": "address payable",
        "numberOfBytes": "20"
      },
      "t_array(t_address_payable)dyn_storage": {
        "base": "t_address_payable",
        "encoding": "dynamic_array",
        "label": "address payable[]",
        "numberOfBytes": "32"
      },
      "t_enum(RaffleState)238": {
        "encoding": "inplace",
        "label": "enum Raffle.RaffleState",
        "numberOfBytes": "1"
      },
      "t_uint256": {
        "encoding": "inplace",
        "label": "uint256",
        "numberOfBytes": "32"
      }
    }
  }
}